:10000000FCEF05F00000000000EF00F00000000031
:0A0010000000000000000000F3D71C
:06001C00000000001200CC
:100022000F0E0C6E470E0D6E0D2EFED70C2EFCD74A
:06003200000000001200B6
:0A003800210E0D6E0D2EFED71200F2
:0E004200026A016A006A086A036A000E120070
:100050000B820BAE32EF00F00368026801680068A3
:080060000A360232FF0E120005
:080068000AAE029E000E120018
:10007000000188BF02D0819601D0818688BD02D060
:10008000819401D0818488BB02D0819201D0818289
:1000900088B902D0819001D081806BB002D0818874
:1000A00001D08198818ABADF819A88B702D081967F
:1000B00001D0818688B502D0819401D0818488B333
:1000C00002D0819201D0818288B102D0819001D08A
:1000D00081806BB002D0818801D08198818A9EDFB7
:0E00E000819A6BA002D09DDF01D0A6DF120036
:1000EE000B840BAE82EF00F0010E036E026A016A02
:0A00FE00006A0A360232FF0E1200FB
:100108000D6A086A0050D8B4000C04180A6E0ABEBA
:100118000D1E0B6A04AE02D0041E042A00AE02D0E3
:10012800001E002A005004100A6E0ABE1FD0045098
:10013800085E003600340836045008260036060EDD
:100148000C6E00340836045000B0085E00A0082683
:1001580000360C2EF6D700A008260BB015D00DAE31
:10016800000C001E002A081E082A000C04AE09D044
:1001780000BE04D00050086E006AF1D7006A002A59
:10018800000C001E0B2AD3D7082A0450085CD8A4F8
:0E019800E6D7086A002A00AEE2D7FF0C12007C
:0C01A6000E0E0D6E0D2EFED70000120094
:1001B20084C004F085C005F004C002F005C003F05D
:1001C200044A052A86C000F087C001F00001864B70
:1001D200872B00C0E9FF01C0EAFF02C0E1FF03C0B4
:1001E200E2FFEECFE6FF02C0E9FF03C0EAFFEE52F4
:0E01F20001E0E2D784C000F085C001F01200E9
:0C0200006B9084C088F034DF6B8012002B
:10020C000A6A0350D8A40A800750D8A40A820A505C
:10021C00D8B469EF01F0030AD8B422EF01F00AB0A8
:10022C001DEF01F006AE67EF01F065EF01F002AED5
:10023C0065EF01F067EF01F00250800B0A6E029E31
:10024C000650800B069E0A18D8B433EF01F00A5002
:10025C00D8B465EF01F067EF01F00750035CD8B438
:10026C003DEF01F0D8A059EF01F05FEF01F006501F
:10027C00025CD8B447EF01F0D8A059EF01F05FEF62
:10028C0001F00550015CD8B451EF01F0D8A059EF42
:10029C0001F05FEF01F00450005CD8B469EF01F09D
:1002AC00D8B05FEF01F00A52D8B467EF01F065EFF8
:1002BC0001F00A52D8B465EF01F067EF01F0D88075
:0E02CC001200D8901200D880D88412001200C0
:1002DA000C6A0E6A0250D8A486EF01F001C002F03F
:1002EA0000C001F0006A0E860250D8A486EF01F021
:1002FA0001C002F0016A0E960E880250D8B498EF37
:10030A0001F00E50035ED8A4D8A09DEF01F0D8905A
:10031A0002BEA2EF01F0003601360236032E8DEF3F
:10032A0001F09DEF01F0010E0C6E86DEA5EF01F0E3
:10033A00020E0C6ED7DEA5EF01F0040E0C6E8FDEF6
:02034A0012009F
:10034C00086A096A000E076203642BEF02F0025080
:10035C0006180A6E075003267E0ED8A0BCEF01F0DB
:10036C00035ED8B02FEF02F0C0EF01F0035ED8A00F
:10037C0033EF02F0028E068E02C00EF001C00BF0BD
:10038C0000C00DF000500402F4CF0CF00150050237
:10039C00F4CF00F0F3CF08F00402F3500C26F45025
:1003AC000822000E00220D500502F3500C26F450CA
:1003BC000822000E002202500402F3500826F450CA
:1003CC00002202500502016A000E0122F3500026A1
:1003DC00F45001220D500602F3500826F45000226E
:1003EC00026A000E012202220B500602F350002674
:1003FC00F4500122000E02220E500602F350012688
:10040C00F450022202BE13EF02F008360036013619
:10041C0002360306D8B433EF02F026EF02F0D88090
:10042C00800E08640030000E002201220222D8A0A7
:10043C0026EF02F0023201320032034A2FEF02F0B3
:10044C000AAE029E000E35EF02F0010EF4DD35EF20
:10045C0002F0020EF7DD35EF02F0040E42DE120060
:08046C000B6A0B86FF0E120063
:10047400C70EC21676C000F0003600900036009019
:10048400003600900050C2128CDEC284C2A401D097
:10049400FDD7C4CF01F0006AC3500012000E011250
:0204A400120044
:1004A6000900F5CFE6FF0006FBE10106F9E11200BF
:1004B600939A93989390939293949396819A819812
:1004C6008196819481928190A9DDA8DDA7DD818244
:1004D6008180818AA0DD819AA1DD818A9CDD819A55
:1004E6009DDD818A98DD819A99DD8190818A93DDEF
:1004F600819A94DD818A8FDD819A81928186818AB3
:100506008ADD819A8BDD81968180818A84DD819A5C
:100516008190818A80DD819A81DD818A7CDD819A64
:100526008180818A78DD819A79DD8190818A73DD87
:10053600819A8186818481828180818A6CDD819A1B
:060546006DDD6B80120068
:10054C00740E6C6E040E6D6E760E6E6E000E6F6E0B
:10055C00C26AC00EC2124E1C006E0050C116C18C75
:06056C00C18EC2801200E6
:1005720003500718D8A4CDEF02F002500618D8A4F1
:10058200CDEF02F001500518D8A4CDEF02F00050D3
:0E0592000418D8B4D8841200D89412001200B5
:1005A0000001826B836B76C07EF077C07FF078C0ED
:1005B00080F079C081F08151FF0A08E18051FF0A83
:1005C00005E17F50FF0A02E17E50FF0A0CE17AC08C
:1005D00084F07BC085F0340E866F000E876FE9DDF6
:1005E000030E006EEBD1010E7C6E80AF0ED0800E3C
:1005F0008019006E00C080F07C2A7AC0E1FF7BC0C9
:10060000E2FF2D0EE66E7A4A7B2A000E006E8119FB
:1006100008E10050801905E100507F1802E17E508A
:10062000000A0BE17AC084F07BC085F0320E866F41
:10063000000E876FBEDD006AC1D18151FF0A08E15B
:100640008051000A05E17F50000A02E17E50000A55
:100650000CE17AC084F07BC085F0380E866F000E06
:10066000876FA7DD7CC000F0A9D1000E046E000EDC
:10067000056E000E066E7F0E076E7EC000F07FC016
:1006800001F080C002F081C003F0C0DD010ED8B0DF
:10069000000E006E00521BE07EC000F07FC001F033
:1006A00080C002F081C003F0000E046E000E056EE3
:1006B000200E066E820E076E49DE00C07EF001C07D
:1006C0007FF002C080F003C081F08307CED7000E18
:1006D000046E000E056E200E066E820E076E7EC042
:1006E00000F07FC001F080C002F081C003F08EDD19
:1006F000000ED8B0010E006E00521BE07EC000F06C
:100700007FC001F080C002F081C003F0CD0E046E06
:10071000CC0E056E4C0E066E7B0E076E17DE00C00B
:100720007EF001C07FF002C080F003C081F0832B17
:10073000CED7FF0E7E14086EFF0E7F14096E7F0E5B
:1007400080150A6E000E81150B6E08C004F009C0FA
:1007500005F00AC006F00BC007F004360490053619
:1007600006360736000E7E14006E000E7F14016EF2
:10077000000E8015026EFF0E8115036E00C07EF024
:1007800001C07FF002C080F003C081F004507E10F1
:10079000006E05507F10016E06508011026E0750EA
:1007A0008111036E00C07EF001C07FF002C080F0B6
:1007B00003C081F07F0E815D006E00C07DF0010EF0
:1007C000816F00C004F07EC000F07FC001F080C0E7
:1007D00002F081C003F0045007E0003600900136BB
:1007E00002360336FF0FF8D700C07EF001C07FF05D
:1007F00002C080F003C081F07AC0E1FF7BC0E2FF5D
:100800008151300FE66E7A4A7B2A800E8319006E82
:10081000800E010A005C08E3800E060A006E800E5E
:100820008319005C01E30AD07AC0E1FF7BC0E2FFDC
:100830002E0EE66E7A4A7B2A010E826F060E7D6EC0
:100840007D50000A54E0816B7EC000F07FC001F053
:1008500080C002F081C003F00036009001360236FD
:100860000336003600900136023603367E500026ED
:100870007F500122805102228151032200C07EF06C
:1008800001C07FF002C080F003C081F07EC000F0A4
:100890007FC001F080C002F081C003F000360090FC
:1008A00001360236033600C07EF001C07FF002C080
:1008B00080F003C081F07AC0E1FF7BC0E2FF81518C
:1008C000300FE66E7A4A7B2A8251000A0EE18307D6
:1008D0008351000A0AE17AC0E1FF7BC0E2FF2E0EDD
:1008E000E66E7A4A7B2A010E826F7D06A9D7FF0E3B
:1008F0007A24E96EFF0E7B20EA6EEE50300A05E1A5
:10090000010E7A5E000E7B5AF2D7FF0E7A24E96E52
:10091000FF0E7B20EA6EEE502E0A04E1010E7A5E95
:10092000000E7B5A8351000A43E07AC0E1FF7BC08E
:10093000E2FF650EE66E7A4A7B2A800E8319006E0E
:10094000800E000A005C0BE27AC0E1FF7BC0E2FF90
:100950002D0EE66E7A4A7B2A83510008836F83C08E
:100960007DF0800E090A006E800E8319005C0FE294
:100970000A0E046E7DC000F084EC00F07AC0E1FF46
:100980007BC0E2FF0050300FE66E7A4A7B2A0A0EE7
:10099000046E7DC000F084EC00F008C000F07AC066
:1009A000E1FF7BC0E2FF0050300FE66E7A4A7B2AFF
:0E09B0007AC0E1FF7BC0E2FFE66A006A120037
:1009BE000450000A12E10550000A0FE10650000A29
:1009CE000CE10750000A09E1FF0E006EFF0E016EEA
:1009DE007F0E026EFF0E036EA7D0086A096A0750DB
:1009EE00D8B48AEF05F00350D8B48EEF05F002505C
:1009FE0006180A6E028E068E0E6A02C008F001C03C
:100A0E000CF000C00DF004500D5E0550D8A0053C52
:100A1E000C5E0650D8A0063C085E086A0C6A0D6A89
:100A2E00D8A021EF05F0D890023201320032083200
:100A3E00010E0E6E0750035ED8A02EEF05F07E0E4F
:100A4E000E240326D8B093EF05F034EF05F07E0E9A
:100A5E000E240326D8A098EF05F0180E0B6E0D3657
:100A6E000C3608360036013602360E360450005E5D
:100A7E000550D8A0053C015E0650D8A0063C025E8B
:100A8E0006340E120EA04FEF05F00D805AEF05F052
:100A9E00045000260550D8B0053C01260650D8B0AB
:100AAE00062802260D900B2E36EF05F080EF05F08E
:100ABE00D8900036013602360E360450005E0550D0
:100ACE00D8A0053C015E0650D8A0063C025E063456
:100ADE000E10010B0D26D8B00C2AD8B4082AD8A4B3
:100AEE0080EF05F008320C320D32032AD8B493EFA2
:100AFE0005F00AAE089E0850026E0C50016E0D50A5
:100B0E00006E9BEF05F0010EAADC9BEF05F0020EC6
:100B1E0021EC00F09BEF05F0040E28EC00F09BEFAB
:0A0B2E0005F0080E77EC00F012004D
:100B380000C008F00150006E016A026A036A0B6A7D
:100B48000C6A016A026A036A960E036E0A6A00AEAC
:100B5800B4EF05F0081E001E082AD8B4002A0A8E31
:100B680000C001F008C000F0086A026A6DEC01F0EC
:020B7800120069
:100B7A000FD0800E766E19D0C00E766E16D0940EF7
:100B8A00766E13D0D40E766E10D0800E766E0DD09F
:100B9A007650010AEEE07650020AEEE07650030A39
:100BAA00EEE07650040AEEE0F0D77704006E765055
:100BBA00002600C076F000C088F038EC00F06B9098
:100BCA007A6A7A507824E96E000E7920EA6EEE523B
:100BDA000CE07A507824E96E000E7920EA6EEECFA6
:0E0BEA0084F000EC01F07A2AECD76B80120048
:100BF80025EC07F0A7DC5BDC836A956A766A36DC4D
:100C080000C01FF001C020F0010E766E2FDC00C07E
:100C180074F001C075F074C01DF075C01EF01FC0DF
:100C280000F020C001F084DF000E046E400E056E57
:100C38001C0E066E8B0E076EA6EC01F0000E046EFD
:100C4800D80E056E1F0E066E8C0E076EB4DE00C041
:100C580070F001C071F002C072F003C073F070C090
:100C680025F071C026F072C027F073C028F074C058
:100C780000F075C001F05CDF000E046E400E056EDA
:100C88001C0E066E8B0E076EA6EC01F0000E046EAD
:100C9800D80E056E1F0E066E8C0E076E8CDE00C019
:100CA80021F001C022F002C023F003C024F019C0D3
:100CB80000F01AC001F01BC002F01CC003F070C0A5
:100CC80004F071C005F072C006F073C007F04DDC87
:100CD800000ED8A4010E006E005218E115C000F0F5
:100CE80016C001F017C002F018C003F021C004F0CC
:100CF80022C005F023C006F024C007F036DC000E41
:100D0800D8A4010E006E005201E17CD025C076F017
:100D180026C077F027C078F028C079F05D0E7A6E8B
:100D2800000E7B6E39DC21C076F022C077F023C03C
:100D380078F024C079F04F0E7A6E000E7B6E2CDCB2
:100D480025C019F026C01AF027C01BF028C01CF0D7
:100D580021C015F022C016F023C017F024C018F0E7
:100D6800626A546A010E886F38EC00F0010E766EE4
:100D7800010E776E290E786E000E796EFADE010E7E
:100D8800766E0A0E776E5D0E786E000E796EF1DE65
:100D9800020E766E010E776E450E786E000E796E35
:100DA800E8DE020E766E0A0E776E4F0E786E000E33
:100DB800796EDFDE25C004F026C005F027C006F0F6
:100DC80028C007F021C000F022C001F023C002F0C3
:100DD80024C003F006EC01F0010ED8B0000E006E3E
:100DE80000520FE0010E886F38EC00F0010E766EAD
:100DF800010E776E3C0E786E000E796EBADE838037
:080E080001D08390FBD6FFD757
:100E4A0010EE15F03A0E006E010E016E100EF66EDF
:0E0E5A000E0EF76E000EF86E53EC02F0120052
:040E100000000000DE
:040E140000000000DA
:020E18000000D8
:020E1A000000D6
:040E1C0000000000D2
:040E200000000000CE
:090E240054656D702031203A0084
:020E2D00300093
:040E2F004E614E00C2
:040E3300494E4600DE
:090E3700462A636B20486F740029
:090E400054656D702032203A0067
:010E49000F99
:020000040030CA
:0D000100220F0EFF0181FF0FC00FE00F4026
:00000001FF
